{
  "contractName": "xFitToken",
  "abi": [
    {
      "constant": true,
      "inputs": [],
      "name": "mintingFinished",
      "outputs": [
        {
          "name": "",
          "type": "bool"
        }
      ],
      "payable": false,
      "stateMutability": "view",
      "type": "function"
    },
    {
      "constant": true,
      "inputs": [],
      "name": "name",
      "outputs": [
        {
          "name": "",
          "type": "string"
        }
      ],
      "payable": false,
      "stateMutability": "view",
      "type": "function"
    },
    {
      "constant": true,
      "inputs": [
        {
          "name": "_from",
          "type": "address"
        },
        {
          "name": "_sender",
          "type": "address"
        }
      ],
      "name": "getAllowedInfo",
      "outputs": [
        {
          "name": "",
          "type": "uint256"
        }
      ],
      "payable": false,
      "stateMutability": "view",
      "type": "function"
    },
    {
      "constant": false,
      "inputs": [
        {
          "name": "_spender",
          "type": "address"
        },
        {
          "name": "_value",
          "type": "uint256"
        }
      ],
      "name": "approve",
      "outputs": [
        {
          "name": "",
          "type": "bool"
        }
      ],
      "payable": false,
      "stateMutability": "nonpayable",
      "type": "function"
    },
    {
      "constant": true,
      "inputs": [],
      "name": "totalSupply",
      "outputs": [
        {
          "name": "",
          "type": "uint256"
        }
      ],
      "payable": false,
      "stateMutability": "view",
      "type": "function"
    },
    {
      "constant": true,
      "inputs": [],
      "name": "pinTracker",
      "outputs": [
        {
          "name": "",
          "type": "uint256"
        }
      ],
      "payable": false,
      "stateMutability": "view",
      "type": "function"
    },
    {
      "constant": true,
      "inputs": [
        {
          "name": "_beneficiary",
          "type": "address"
        }
      ],
      "name": "getTokenInfo",
      "outputs": [
        {
          "name": "",
          "type": "string"
        },
        {
          "name": "",
          "type": "string"
        },
        {
          "name": "",
          "type": "uint256"
        }
      ],
      "payable": false,
      "stateMutability": "view",
      "type": "function"
    },
    {
      "constant": false,
      "inputs": [
        {
          "name": "_newTokenName",
          "type": "string"
        },
        {
          "name": "_from",
          "type": "address"
        },
        {
          "name": "_to",
          "type": "address"
        },
        {
          "name": "_value",
          "type": "uint256"
        }
      ],
      "name": "transferFrom",
      "outputs": [
        {
          "name": "",
          "type": "bool"
        }
      ],
      "payable": false,
      "stateMutability": "nonpayable",
      "type": "function"
    },
    {
      "constant": false,
      "inputs": [
        {
          "name": "_from",
          "type": "address"
        },
        {
          "name": "_to",
          "type": "address"
        },
        {
          "name": "_value",
          "type": "uint256"
        }
      ],
      "name": "transferFrom",
      "outputs": [
        {
          "name": "",
          "type": "bool"
        }
      ],
      "payable": false,
      "stateMutability": "nonpayable",
      "type": "function"
    },
    {
      "constant": false,
      "inputs": [
        {
          "name": "_pin",
          "type": "uint256"
        },
        {
          "name": "_tokenName",
          "type": "string"
        }
      ],
      "name": "updateUserTimestamp",
      "outputs": [],
      "payable": false,
      "stateMutability": "nonpayable",
      "type": "function"
    },
    {
      "constant": true,
      "inputs": [],
      "name": "decimals",
      "outputs": [
        {
          "name": "",
          "type": "uint256"
        }
      ],
      "payable": false,
      "stateMutability": "view",
      "type": "function"
    },
    {
      "constant": false,
      "inputs": [
        {
          "name": "_to",
          "type": "address"
        },
        {
          "name": "_amount",
          "type": "uint256"
        }
      ],
      "name": "mint",
      "outputs": [
        {
          "name": "",
          "type": "bool"
        }
      ],
      "payable": false,
      "stateMutability": "nonpayable",
      "type": "function"
    },
    {
      "constant": false,
      "inputs": [
        {
          "name": "_spender",
          "type": "address"
        },
        {
          "name": "_subtractedValue",
          "type": "uint256"
        }
      ],
      "name": "decreaseApproval",
      "outputs": [
        {
          "name": "",
          "type": "bool"
        }
      ],
      "payable": false,
      "stateMutability": "nonpayable",
      "type": "function"
    },
    {
      "constant": true,
      "inputs": [
        {
          "name": "_owner",
          "type": "address"
        }
      ],
      "name": "balanceOf",
      "outputs": [
        {
          "name": "balance",
          "type": "uint256"
        }
      ],
      "payable": false,
      "stateMutability": "view",
      "type": "function"
    },
    {
      "constant": false,
      "inputs": [],
      "name": "finishMinting",
      "outputs": [
        {
          "name": "",
          "type": "bool"
        }
      ],
      "payable": false,
      "stateMutability": "nonpayable",
      "type": "function"
    },
    {
      "constant": false,
      "inputs": [
        {
          "name": "_newTokenName",
          "type": "string"
        },
        {
          "name": "_beneficiary",
          "type": "address"
        },
        {
          "name": "_location",
          "type": "string"
        },
        {
          "name": "_projectVotedForOwner",
          "type": "address"
        }
      ],
      "name": "assignPin",
      "outputs": [
        {
          "name": "",
          "type": "uint256"
        }
      ],
      "payable": false,
      "stateMutability": "nonpayable",
      "type": "function"
    },
    {
      "constant": true,
      "inputs": [
        {
          "name": "_pin",
          "type": "uint256"
        },
        {
          "name": "_tokenName",
          "type": "string"
        }
      ],
      "name": "checkInUserCheck",
      "outputs": [
        {
          "name": "",
          "type": "string"
        }
      ],
      "payable": false,
      "stateMutability": "view",
      "type": "function"
    },
    {
      "constant": true,
      "inputs": [],
      "name": "owner",
      "outputs": [
        {
          "name": "",
          "type": "address"
        }
      ],
      "payable": false,
      "stateMutability": "view",
      "type": "function"
    },
    {
      "constant": true,
      "inputs": [],
      "name": "symbol",
      "outputs": [
        {
          "name": "",
          "type": "string"
        }
      ],
      "payable": false,
      "stateMutability": "view",
      "type": "function"
    },
    {
      "constant": false,
      "inputs": [
        {
          "name": "_to",
          "type": "address"
        },
        {
          "name": "_value",
          "type": "uint256"
        }
      ],
      "name": "transfer",
      "outputs": [
        {
          "name": "",
          "type": "bool"
        }
      ],
      "payable": false,
      "stateMutability": "nonpayable",
      "type": "function"
    },
    {
      "constant": false,
      "inputs": [
        {
          "name": "_originalOwner",
          "type": "address"
        },
        {
          "name": "_newOwner",
          "type": "address"
        }
      ],
      "name": "updatePinOwner",
      "outputs": [
        {
          "name": "",
          "type": "uint256"
        }
      ],
      "payable": false,
      "stateMutability": "nonpayable",
      "type": "function"
    },
    {
      "constant": false,
      "inputs": [
        {
          "name": "_currentPin",
          "type": "uint256"
        },
        {
          "name": "_newPin",
          "type": "uint256"
        },
        {
          "name": "_tokenName",
          "type": "string"
        }
      ],
      "name": "changePin",
      "outputs": [
        {
          "name": "",
          "type": "string"
        }
      ],
      "payable": false,
      "stateMutability": "nonpayable",
      "type": "function"
    },
    {
      "constant": true,
      "inputs": [
        {
          "name": "",
          "type": "address"
        }
      ],
      "name": "pinHolder",
      "outputs": [
        {
          "name": "",
          "type": "uint256"
        }
      ],
      "payable": false,
      "stateMutability": "view",
      "type": "function"
    },
    {
      "constant": false,
      "inputs": [
        {
          "name": "_spender",
          "type": "address"
        },
        {
          "name": "_addedValue",
          "type": "uint256"
        }
      ],
      "name": "increaseApproval",
      "outputs": [
        {
          "name": "",
          "type": "bool"
        }
      ],
      "payable": false,
      "stateMutability": "nonpayable",
      "type": "function"
    },
    {
      "constant": true,
      "inputs": [
        {
          "name": "_owner",
          "type": "address"
        },
        {
          "name": "_spender",
          "type": "address"
        }
      ],
      "name": "allowance",
      "outputs": [
        {
          "name": "",
          "type": "uint256"
        }
      ],
      "payable": false,
      "stateMutability": "view",
      "type": "function"
    },
    {
      "constant": true,
      "inputs": [
        {
          "name": "",
          "type": "uint256"
        }
      ],
      "name": "pinInfo",
      "outputs": [
        {
          "name": "tokenName",
          "type": "string"
        },
        {
          "name": "tokenOwner",
          "type": "address"
        },
        {
          "name": "projectVotedFor",
          "type": "string"
        },
        {
          "name": "projectVotedForOwner",
          "type": "address"
        },
        {
          "name": "lastCheckIn",
          "type": "uint256"
        }
      ],
      "payable": false,
      "stateMutability": "view",
      "type": "function"
    },
    {
      "constant": false,
      "inputs": [
        {
          "name": "newOwner",
          "type": "address"
        }
      ],
      "name": "transferOwnership",
      "outputs": [],
      "payable": false,
      "stateMutability": "nonpayable",
      "type": "function"
    },
    {
      "constant": false,
      "inputs": [
        {
          "name": "_newTokenName",
          "type": "string"
        },
        {
          "name": "_pin",
          "type": "uint256"
        }
      ],
      "name": "changeTokenName",
      "outputs": [],
      "payable": false,
      "stateMutability": "nonpayable",
      "type": "function"
    },
    {
      "anonymous": false,
      "inputs": [
        {
          "indexed": true,
          "name": "to",
          "type": "address"
        },
        {
          "indexed": false,
          "name": "amount",
          "type": "uint256"
        }
      ],
      "name": "Mint",
      "type": "event"
    },
    {
      "anonymous": false,
      "inputs": [],
      "name": "MintFinished",
      "type": "event"
    },
    {
      "anonymous": false,
      "inputs": [
        {
          "indexed": true,
          "name": "previousOwner",
          "type": "address"
        },
        {
          "indexed": true,
          "name": "newOwner",
          "type": "address"
        }
      ],
      "name": "OwnershipTransferred",
      "type": "event"
    },
    {
      "anonymous": false,
      "inputs": [
        {
          "indexed": true,
          "name": "owner",
          "type": "address"
        },
        {
          "indexed": true,
          "name": "spender",
          "type": "address"
        },
        {
          "indexed": false,
          "name": "value",
          "type": "uint256"
        }
      ],
      "name": "Approval",
      "type": "event"
    },
    {
      "anonymous": false,
      "inputs": [
        {
          "indexed": true,
          "name": "from",
          "type": "address"
        },
        {
          "indexed": true,
          "name": "to",
          "type": "address"
        },
        {
          "indexed": false,
          "name": "value",
          "type": "uint256"
        }
      ],
      "name": "Transfer",
      "type": "event"
    }
  ],
  "bytecode": "0x606060409081526003805460a060020a60ff02191690558051908101604052600981527f78466974546f6b656e0000000000000000000000000000000000000000000000602082015260049080516200005d929160200190620000d4565b5060408051908101604052600381527f584654000000000000000000000000000000000000000000000000000000000060208201526005908051620000a7929160200190620000d4565b50601260065561040a60075560038054600160a060020a03191633600160a060020a031617905562000179565b828054600181600116156101000203166002900490600052602060002090601f016020900481019282601f106200011757805160ff191683800117855562000147565b8280016001018555821562000147579182015b82811115620001475782518255916020019190600101906200012a565b506200015592915062000159565b5090565b6200017691905b8082111562000155576000815560010162000160565b90565b611cf380620001896000396000f3006060604052600436106101695763ffffffff7c010000000000000000000000000000000000000000000000000000000060003504166305d2035b811461016e57806306fdde031461019557806308bb35061461021f578063095ea7b31461025657806318160ddd146102785780631b6512ca1461028b5780631f69565f1461029e5780631fc38a8b146103a557806323b872dd146104105780632e47f42214610438578063313ce5671461049057806340c10f19146104a357806366188463146104c557806370a08231146104e75780637d64bcb41461050657806389b3b064146105195780638b1a2880146105c95780638da5cb5b1461061f57806395d89b411461064e578063a9059cbb14610661578063af366f4314610683578063bed95ab3146106a8578063d5a76a3114610704578063d73dd62314610723578063dd62ed3e1461021f578063de8e09a214610745578063f2fde38b1461087f578063feaa89681461089e575b600080fd5b341561017957600080fd5b6101816108f1565b604051901515815260200160405180910390f35b34156101a057600080fd5b6101a8610901565b60405160208082528190810183818151815260200191508051906020019080838360005b838110156101e45780820151838201526020016101cc565b50505050905090810190601f1680156102115780820380516001836020036101000a031916815260200191505b509250505060405180910390f35b341561022a57600080fd5b610244600160a060020a036004358116906024351661099f565b60405190815260200160405180910390f35b341561026157600080fd5b610181600160a060020a03600435166024356109ca565b341561028357600080fd5b610244610a36565b341561029657600080fd5b610244610a3d565b34156102a957600080fd5b6102bd600160a060020a0360043516610a43565b604051808060200180602001848152602001838103835286818151815260200191508051906020019080838360005b838110156103045780820151838201526020016102ec565b50505050905090810190601f1680156103315780820380516001836020036101000a031916815260200191505b50838103825285818151815260200191508051906020019080838360005b8381101561036757808201518382015260200161034f565b50505050905090810190601f1680156103945780820380516001836020036101000a031916815260200191505b509550505050505060405180910390f35b34156103b057600080fd5b61018160046024813581810190830135806020601f8201819004810201604051908101604052818152929190602084018383808284375094965050600160a060020a03853581169560208101359091169450604001359250610c50915050565b341561041b57600080fd5b610181600160a060020a0360043581169060243516604435610c7e565b341561044357600080fd5b61048e600480359060446024803590810190830135806020601f82018190048102016040519081016040528181529291906020840183838082843750949650610c9e95505050505050565b005b341561049b57600080fd5b610244610d58565b34156104ae57600080fd5b610181600160a060020a0360043516602435610d5e565b34156104d057600080fd5b610181600160a060020a0360043516602435610e6c565b34156104f257600080fd5b610244600160a060020a0360043516610f68565b341561051157600080fd5b610181610f83565b341561052457600080fd5b61024460046024813581810190830135806020601f82018190048102016040519081016040528181529291906020840183838082843782019150505050505091908035600160a060020a031690602001909190803590602001908201803590602001908080601f01602080910402602001604051908101604052818152929190602084018383808284375094965050509235600160a060020a0316925061100e915050565b34156105d457600080fd5b6101a8600480359060446024803590810190830135806020601f8201819004810201604051908101604052818152929190602084018383808284375094965061115f95505050505050565b341561062a57600080fd5b610632611376565b604051600160a060020a03909116815260200160405180910390f35b341561065957600080fd5b6101a8611385565b341561066c57600080fd5b610181600160a060020a03600435166024356113f0565b341561068e57600080fd5b610244600160a060020a0360043581169060243516611403565b34156106b357600080fd5b6101a8600480359060248035919060649060443590810190830135806020601f8201819004810201604051908101604052818152929190602084018383808284375094965061145b95505050505050565b341561070f57600080fd5b610244600160a060020a036004351661171e565b341561072e57600080fd5b610181600160a060020a0360043516602435611730565b341561075057600080fd5b61075b6004356117d4565b604051600160a060020a038086166020830152831660608201526080810182905260a08082528654600260001961010060018416150201909116049082018190528190604082019060c0830190899080156107f75780601f106107cc576101008083540402835291602001916107f7565b820191906000526020600020905b8154815290600101906020018083116107da57829003601f168201915b505083810382528654600260001961010060018416150201909116048082526020909101908790801561086b5780601f106108405761010080835404028352916020019161086b565b820191906000526020600020905b81548152906001019060200180831161084e57829003601f168201915b505097505050505050505060405180910390f35b341561088a57600080fd5b61048e600160a060020a0360043516611807565b34156108a957600080fd5b61048e60046024813581810190830135806020601f82018190048102016040519081016040528181529291906020840183838082843750949650509335935061189592505050565b60035460a060020a900460ff1681565b60048054600181600116156101000203166002900480601f0160208091040260200160405190810160405280929190818152602001828054600181600116156101000203166002900480156109975780601f1061096c57610100808354040283529160200191610997565b820191906000526020600020905b81548152906001019060200180831161097a57829003601f168201915b505050505081565b600160a060020a03918216600090815260026020908152604080832093909416825291909152205490565b600160a060020a03338116600081815260026020908152604080832094871680845294909152808220859055909291907f8c5be1e5ebec7d5bd14f71427d1e84f3dd0314c0f7b2291e5b200ac8c7c3b9259085905190815260200160405180910390a350600192915050565b6001545b90565b60075481565b610a4b611b6c565b610a53611b6c565b6000610a5d611b7e565b600160a060020a03851660009081526009602090815260408083205483526008909152908190209060a090519081016040529081600082018054600181600116156101000203166002900480601f016020809104026020016040519081016040528092919081815260200182805460018160011615610100020316600290048015610b295780601f10610afe57610100808354040283529160200191610b29565b820191906000526020600020905b815481529060010190602001808311610b0c57829003601f168201915b505050505081526020016001820160009054906101000a9004600160a060020a0316600160a060020a0316600160a060020a03168152602001600282018054600181600116156101000203166002900480601f016020809104026020016040519081016040528092919081815260200182805460018160011615610100020316600290048015610bfa5780601f10610bcf57610100808354040283529160200191610bfa565b820191906000526020600020905b815481529060010190602001808311610bdd57829003601f168201915b50505091835250506003820154600160a060020a03166020820152600490910154604090910152905080518160400151600160a060020a0396909616600090815260096020526040902054909690945092505050565b600080610c5e8585856118b9565b50610c698585611403565b9050610c758682611895565b50949350505050565b6000610c8b8484846118b9565b50610c968484611403565b509392505050565b6000828152600860205260409020426004820155805481908190610cd8908290819060026000196101006001841615020190911604611bba565b506001828101548282018054600160a060020a031916600160a060020a0390921691909117905560028084018054610d23938386019390821615610100026000190190911604611bba565b506003828101549082018054600160a060020a031916600160a060020a03909216919091179055600491820154910155505050565b60065481565b60035460009033600160a060020a03908116911614610d7c57600080fd5b60035460a060020a900460ff1615610d9357600080fd5b600154610da6908363ffffffff611a3916565b600155600160a060020a038316600090815260208190526040902054610dd2908363ffffffff611a3916565b600160a060020a0384166000818152602081905260409081902092909255907f0f6798a560793a54c3bcfe86a93cde1e73087d944c0ea20544137d41213968859084905190815260200160405180910390a2600160a060020a03831660007fddf252ad1be2c89b69c2b068fc378daa952ba7f163c4a11628f55a4df523b3ef8460405190815260200160405180910390a350600192915050565b600160a060020a03338116600090815260026020908152604080832093861683529290529081205480831115610ec957600160a060020a033381166000908152600260209081526040808320938816835292905290812055610f00565b610ed9818463ffffffff611a4816565b600160a060020a033381166000908152600260209081526040808320938916835292905220555b600160a060020a0333811660008181526002602090815260408083209489168084529490915290819020547f8c5be1e5ebec7d5bd14f71427d1e84f3dd0314c0f7b2291e5b200ac8c7c3b925915190815260200160405180910390a3600191505b5092915050565b600160a060020a031660009081526020819052604090205490565b60035460009033600160a060020a03908116911614610fa157600080fd5b60035460a060020a900460ff1615610fb857600080fd5b6003805474ff0000000000000000000000000000000000000000191660a060020a1790557fae5184fba832cb2b1f702aca6117b8d265eaf03ad33eb133f19dde0f5920fa0860405160405180910390a150600190565b6000611018611b7e565b60075461102c90600163ffffffff611a3916565b6007555b600754600090815260086020526040902060010154600160a060020a03161561106f5760075461106790600163ffffffff611a3916565b600755611030565b60a06040519081016040908152878252600160a060020a03808816602080850182905283850189905291871660608501526000608085018190526007549181526009835283812082905590815260089091522090915081908151819080516110db929160200190611c3f565b506020820151600182018054600160a060020a031916600160a060020a039290921691909117905560408201518160020190805161111d929160200190611c3f565b506060820151600382018054600160a060020a031916600160a060020a0392909216919091179055608082015160049091015550600754915050949350505050565b611167611b6c565b60008381526008602052604090819020908390518082805190602001908083835b602083106111a75780518252601f199092019160209182019101611188565b6001836020036101000a03801982511681845116179092525050509190910192506040915050519081900390208160405180828054600181600116156101000203166002900480156112305780601f1061120e576101008083540402835291820191611230565b820191906000526020600020905b81548152906001019060200180831161121c575b5050915050604051908190039020141561133b57600381015433600160a060020a03908116911614156112985760408051908101604052600c81527f7375636365737320686f6d65000000000000000000000000000000000000000060208201529150610f61565b600481015442906112b2906201518063ffffffff611a3916565b10806112c057506004810154155b156113005760408051908101604052600f81527f737563636573732076697369746f72000000000000000000000000000000000060208201529150610f61565b60408051908101604052600f81527f616c72656164792076697369746f72000000000000000000000000000000000060208201529150610f61565b60408051908101604052600781527f696e76616c69640000000000000000000000000000000000000000000000000060208201529150610f61565b600354600160a060020a031681565b60058054600181600116156101000203166002900480601f0160208091040260200160405190810160405280929190818152602001828054600181600116156101000203166002900480156109975780601f1061096c57610100808354040283529160200191610997565b60006113fc8383611a5a565b50610f6133845b600160a060020a03808316600090815260096020908152604080832080549084905593851680845281842085905584845260089092528220600181018054600160a060020a0319169092179091556004015592915050565b611463611b6c565b600083815260086020526040902060010154600160a060020a0316156114be5760408051908101604052601681527f70696e20697320616c726561647920696e20757365720000000000000000000060208201529050611717565b600160a060020a033316600090815260096020526040902054841415806115b85750816040518082805190602001908083835b602083106115105780518252601f1990920191602091820191016114f1565b6001836020036101000a038019825116818451161790925250505091909101925060409150505190819003902060008581526008602052604090819020905180828054600181600116156101000203166002900480156115a75780601f106115855761010080835404028352918201916115a7565b820191906000526020600020905b815481529060010190602001808311611593575b505091505060405190819003902014155b156115f85760408051908101604052601e81527f696e636f72726563742063726564656e7469616c7320737570706c696564000060208201529050611717565b600160a060020a0333166000908152600960209081526040808320869055868352600890915280822085835291208154611648908290849060026000196101006001841615020190911604611bba565b506001828101548282018054600160a060020a031916600160a060020a0390921691909117905560028084018054611693938386019390821615610100026000190190911604611bba565b506003828101549082018054600160a060020a03909216600160a060020a031992831617905560049283015492909101919091556000858152600860205260409081902060010180549092169091558051908101604052601881527f70696e207375636365737366756c6c7920757064617465640000000000000000602082015290505b9392505050565b60096020526000908152604090205481565b600160a060020a033381166000908152600260209081526040808320938616835292905290812054611768908363ffffffff611a3916565b600160a060020a0333811660008181526002602090815260408083209489168084529490915290819020849055919290917f8c5be1e5ebec7d5bd14f71427d1e84f3dd0314c0f7b2291e5b200ac8c7c3b92591905190815260200160405180910390a350600192915050565b6008602052600090815260409020600181015460038201546004830154600160a060020a03928316926002850192169085565b60035433600160a060020a0390811691161461182257600080fd5b600160a060020a038116151561183757600080fd5b600354600160a060020a0380831691167f8be0079c531659141344cd1fd0a4f28419497f9722a3daafe3b4186f6b6457e060405160405180910390a360038054600160a060020a031916600160a060020a0392909216919091179055565b60008181526008602052604090208280516118b4929160200190611c3f565b505050565b6000600160a060020a03831615156118d057600080fd5b600160a060020a0384166000908152602081905260409020548211156118f557600080fd5b600160a060020a038085166000908152600260209081526040808320339094168352929052205482111561192857600080fd5b600160a060020a038416600090815260208190526040902054611951908363ffffffff611a4816565b600160a060020a038086166000908152602081905260408082209390935590851681522054611986908363ffffffff611a3916565b600160a060020a03808516600090815260208181526040808320949094558783168252600281528382203390931682529190915220546119cc908363ffffffff611a4816565b600160a060020a03808616600081815260026020908152604080832033861684529091529081902093909355908516917fddf252ad1be2c89b69c2b068fc378daa952ba7f163c4a11628f55a4df523b3ef9085905190815260200160405180910390a35060019392505050565b60008282018381101561171757fe5b600082821115611a5457fe5b50900390565b6000600160a060020a0383161515611a7157600080fd5b600160a060020a033316600090815260208190526040902054821115611a9657600080fd5b600160a060020a033316600090815260208190526040902054611abf908363ffffffff611a4816565b600160a060020a033381166000908152602081905260408082209390935590851681522054611af4908363ffffffff611a3916565b60008085600160a060020a0316600160a060020a031681526020019081526020016000208190555082600160a060020a031633600160a060020a03167fddf252ad1be2c89b69c2b068fc378daa952ba7f163c4a11628f55a4df523b3ef8460405190815260200160405180910390a350600192915050565b60206040519081016040526000815290565b60a060405190810160405280611b92611b6c565b815260006020820152604001611ba6611b6c565b815260006020820181905260409091015290565b828054600181600116156101000203166002900490600052602060002090601f016020900481019282601f10611bf35780548555611c2f565b82800160010185558215611c2f57600052602060002091601f016020900482015b82811115611c2f578254825591600101919060010190611c14565b50611c3b929150611cad565b5090565b828054600181600116156101000203166002900490600052602060002090601f016020900481019282601f10611c8057805160ff1916838001178555611c2f565b82800160010185558215611c2f579182015b82811115611c2f578251825591602001919060010190611c92565b610a3a91905b80821115611c3b5760008155600101611cb35600a165627a7a72305820154205190c8412beae6e704be2e73fcd0b0219f183ac114992d73c64a3605ba70029",
  "source": "pragma solidity 0.4.18;\n\nimport 'zeppelin-solidity/contracts/token/ERC20/MintableToken.sol';\nimport 'zeppelin-solidity/contracts/math/SafeMath.sol';\n\ncontract xFitToken is MintableToken {\n  using SafeMath for uint256;\n\n  string public name = \"xFitToken\";\n  string public symbol = \"XFT\";\n  uint256 public decimals = 18;\n  uint256 public pinTracker = 1034;\n  mapping (uint256 => TokenInfo) public pinInfo;\n  mapping (address => uint256) public pinHolder;\n\n  struct TokenInfo {\n      string tokenName;\n      address tokenOwner;\n      string projectVotedFor;\n      address projectVotedForOwner;\n      uint256 lastCheckIn;\n  }\n\n  function transfer(address _to, uint256 _value) public returns (bool) {\n    super.transfer(_to, _value);\n    updatePinOwner(msg.sender, _to);\n  }\n\n  // If the user is calling from our site, they will pass in a new name\n  function transferFrom(string _newTokenName, address _from, address _to, uint256 _value) public returns (bool) {\n    super.transferFrom(_from, _to, _value);\n    uint256 pin = updatePinOwner(_from, _to);\n    changeTokenName(_newTokenName, pin);\n  }\n\n  // If the user is calling from a 3rd party, the name will remain the same\n  function transferFrom(address _from, address _to, uint256 _value) public returns (bool) {\n    super.transferFrom(_from, _to, _value);\n    updatePinOwner(_from, _to);\n  }\n\n  // needs to remain public\n  function assignPin(string _newTokenName, address _beneficiary, string _location, address _projectVotedForOwner) public returns (uint256) {\n    // need to find out how to make this interanl and still work from crowdsale\n    // maybe require balanceOf[msg.sender] > 1;\n    // require that the pin for msg.sender is 0 ie it has just been created\n    \n    pinTracker = pinTracker.add(1);\n    while(!(pinInfo[pinTracker].tokenOwner == 0x0000000000000000000000000000000000000000)){\n        pinTracker = pinTracker.add(1);\n    }\n\n    TokenInfo memory newToken = TokenInfo({\n      projectVotedForOwner:_projectVotedForOwner,\n      tokenName: _newTokenName,\n      tokenOwner: _beneficiary,\n      projectVotedFor: _location,\n      lastCheckIn: 0\n    });\n\n    pinHolder[_beneficiary] = pinTracker;\n    pinInfo[pinTracker] = newToken;\n\n    return pinTracker;\n  }\n\n  // change to internal\n  function updatePinOwner(address _originalOwner, address _newOwner) public returns (uint256) {\n    // retrieve pin\n    uint256 pin = pinHolder[_originalOwner];\n    \n    // remove previous owner\n    pinHolder[_originalOwner] = 0;\n\n    // add new owner to pin mapping\n    pinHolder[_newOwner] = pin;\n\n    // update pinInfo\n    // require(pinInfo[pin].tokenOwner);\n    pinInfo[pin].tokenOwner = _newOwner;\n    pinInfo[pin].lastCheckIn = 0;\n\n    return pin;\n  }\n\n  // change to internal\n  function changeTokenName(string _newTokenName, uint256 _pin) public {\n    pinInfo[_pin].tokenName = _newTokenName;\n  }\n\n  function changePin(uint256 _currentPin, uint256 _newPin, string _tokenName) public returns(string){\n    if (!(pinInfo[_newPin].tokenOwner == 0x0000000000000000000000000000000000000000)){\n        return \"pin is already in user\";\n    } \n    if (pinHolder[msg.sender] != _currentPin || keccak256(pinInfo[_currentPin].tokenName) != keccak256(_tokenName)){\n        return \"incorrect credentials supplied\";\n    }\n    pinHolder[msg.sender] = _newPin;\n    pinInfo[_newPin] = pinInfo[_currentPin];\n    pinInfo[_currentPin].tokenOwner = 0x0000000000000000000000000000000000000000;\n    return \"pin successfully updated\";\n  }\n\n  function checkInUserCheck(uint256 _pin, string _tokenName) public view returns (string) {\n    // checks in user\n      // returns: \n      //   \"already visitor\": if the user has already checked in within 24 hours\n      //   \"invalid\": if the pin and name do not match\n      //   \"success visitor\": for successful check in at visitor gym (+ update timestamp)\n      //   \"success home\": for successful check in at home gym (+ no update timestamp)\n    TokenInfo tokenInfo = pinInfo[_pin];\n    if (keccak256(tokenInfo.tokenName) == keccak256(_tokenName)){\n      if (tokenInfo.projectVotedForOwner == msg.sender){\n        return \"success home\";\n      } else if (tokenInfo.lastCheckIn.add(86400) < now || tokenInfo.lastCheckIn == 0) {\n        return \"success visitor\";\n      } else {\n        return \"already visitor\";\n      }\n    } else {\n      return \"invalid\";\n    }\n  }\n\n  function updateUserTimestamp(uint256 _pin, string _tokenName) public {\n    TokenInfo tokenInfo = pinInfo[_pin];\n    tokenInfo.lastCheckIn = now;\n    pinInfo[_pin] = tokenInfo;\n  }\n\n  // add a requirement that the caller is the owner\n  // or better yet, remove _beneficiary and use msg.sender\n  function getTokenInfo(address _beneficiary) public view returns(string, string, uint256) {\n      TokenInfo memory userTokenInfo = pinInfo[pinHolder[_beneficiary]];\n      return (\n          userTokenInfo.tokenName,\n          userTokenInfo.projectVotedFor,\n          pinHolder[_beneficiary]\n      );\n  }\n\n\n  function getAllowedInfo(address _from, address _sender) public view returns (uint256) {\n    return allowed[_from][_sender];\n  }\n\n}\n",
  "sourcePath": "/Users/Colin/Desktop/crossfit-coin-backend-demo/contracts/xFitToken.sol",
  "compiler": {
    "name": "solc",
    "version": "0.4.18+commit.9cf6e910.Emscripten.clang"
  },
  "schemaVersion": "1.0.1",
  "updatedAt": "2018-06-12T15:35:09.833Z"
}