{
  "contractName": "xFitTokenCrowdsale",
  "abi": [
    {
      "constant": true,
      "inputs": [],
      "name": "hasClosed",
      "outputs": [
        {
          "name": "",
          "type": "bool"
        }
      ],
      "payable": false,
      "stateMutability": "view",
      "type": "function"
    },
    {
      "constant": true,
      "inputs": [],
      "name": "rate",
      "outputs": [
        {
          "name": "",
          "type": "uint256"
        }
      ],
      "payable": false,
      "stateMutability": "view",
      "type": "function"
    },
    {
      "constant": true,
      "inputs": [],
      "name": "weiRaised",
      "outputs": [
        {
          "name": "",
          "type": "uint256"
        }
      ],
      "payable": false,
      "stateMutability": "view",
      "type": "function"
    },
    {
      "constant": true,
      "inputs": [],
      "name": "closingTime",
      "outputs": [
        {
          "name": "",
          "type": "uint256"
        }
      ],
      "payable": false,
      "stateMutability": "view",
      "type": "function"
    },
    {
      "constant": true,
      "inputs": [],
      "name": "wallet",
      "outputs": [
        {
          "name": "",
          "type": "address"
        }
      ],
      "payable": false,
      "stateMutability": "view",
      "type": "function"
    },
    {
      "constant": false,
      "inputs": [
        {
          "name": "_location",
          "type": "string"
        },
        {
          "name": "_cost",
          "type": "uint256"
        },
        {
          "name": "_creator",
          "type": "address"
        },
        {
          "name": "_name",
          "type": "string"
        },
        {
          "name": "_lat",
          "type": "string"
        },
        {
          "name": "_lng",
          "type": "string"
        }
      ],
      "name": "createProject",
      "outputs": [],
      "payable": true,
      "stateMutability": "payable",
      "type": "function"
    },
    {
      "constant": true,
      "inputs": [],
      "name": "openingTime",
      "outputs": [
        {
          "name": "",
          "type": "uint256"
        }
      ],
      "payable": false,
      "stateMutability": "view",
      "type": "function"
    },
    {
      "constant": true,
      "inputs": [
        {
          "name": "",
          "type": "uint256"
        }
      ],
      "name": "projectAddresses",
      "outputs": [
        {
          "name": "location",
          "type": "string"
        },
        {
          "name": "deployed",
          "type": "bool"
        }
      ],
      "payable": false,
      "stateMutability": "view",
      "type": "function"
    },
    {
      "constant": true,
      "inputs": [],
      "name": "canDeployProject",
      "outputs": [
        {
          "name": "",
          "type": "string"
        },
        {
          "name": "",
          "type": "uint256"
        }
      ],
      "payable": false,
      "stateMutability": "view",
      "type": "function"
    },
    {
      "constant": false,
      "inputs": [
        {
          "name": "_beneficiary",
          "type": "address"
        },
        {
          "name": "_location",
          "type": "string"
        },
        {
          "name": "_tokenName",
          "type": "string"
        }
      ],
      "name": "buyxFitToken",
      "outputs": [],
      "payable": true,
      "stateMutability": "payable",
      "type": "function"
    },
    {
      "constant": false,
      "inputs": [],
      "name": "deployProject",
      "outputs": [],
      "payable": true,
      "stateMutability": "payable",
      "type": "function"
    },
    {
      "constant": false,
      "inputs": [
        {
          "name": "tokenOwner",
          "type": "address"
        }
      ],
      "name": "sendTokenPayment",
      "outputs": [],
      "payable": true,
      "stateMutability": "payable",
      "type": "function"
    },
    {
      "constant": false,
      "inputs": [
        {
          "name": "_beneficiary",
          "type": "address"
        }
      ],
      "name": "buyTokens",
      "outputs": [],
      "payable": true,
      "stateMutability": "payable",
      "type": "function"
    },
    {
      "constant": true,
      "inputs": [
        {
          "name": "_location",
          "type": "string"
        }
      ],
      "name": "getProjectInfo",
      "outputs": [
        {
          "name": "",
          "type": "string"
        },
        {
          "name": "",
          "type": "uint256"
        },
        {
          "name": "",
          "type": "address"
        },
        {
          "name": "",
          "type": "bool"
        },
        {
          "name": "",
          "type": "uint256"
        }
      ],
      "payable": false,
      "stateMutability": "view",
      "type": "function"
    },
    {
      "constant": true,
      "inputs": [],
      "name": "token",
      "outputs": [
        {
          "name": "",
          "type": "address"
        }
      ],
      "payable": false,
      "stateMutability": "view",
      "type": "function"
    },
    {
      "inputs": [
        {
          "name": "_openingTime",
          "type": "uint256"
        },
        {
          "name": "_closingTime",
          "type": "uint256"
        },
        {
          "name": "_rate",
          "type": "uint256"
        },
        {
          "name": "_wallet",
          "type": "address"
        },
        {
          "name": "_token",
          "type": "address"
        }
      ],
      "payable": false,
      "stateMutability": "nonpayable",
      "type": "constructor"
    },
    {
      "payable": true,
      "stateMutability": "payable",
      "type": "fallback"
    },
    {
      "anonymous": false,
      "inputs": [
        {
          "indexed": false,
          "name": "location",
          "type": "string"
        },
        {
          "indexed": false,
          "name": "cost",
          "type": "uint256"
        },
        {
          "indexed": false,
          "name": "creator",
          "type": "address"
        },
        {
          "indexed": false,
          "name": "name",
          "type": "string"
        },
        {
          "indexed": false,
          "name": "lat",
          "type": "string"
        },
        {
          "indexed": false,
          "name": "lng",
          "type": "string"
        },
        {
          "indexed": false,
          "name": "complete",
          "type": "bool"
        }
      ],
      "name": "LogProject",
      "type": "event"
    },
    {
      "anonymous": false,
      "inputs": [
        {
          "indexed": true,
          "name": "purchaser",
          "type": "address"
        },
        {
          "indexed": true,
          "name": "beneficiary",
          "type": "address"
        },
        {
          "indexed": false,
          "name": "value",
          "type": "uint256"
        },
        {
          "indexed": false,
          "name": "amount",
          "type": "uint256"
        }
      ],
      "name": "TokenPurchase",
      "type": "event"
    }
  ],
  "bytecode": "0x6060604052341561000f57600080fd5b60405160a080611f2983398101604052808051919060200180519190602001805191906020018051919060200180519150859050848484846000831161005457600080fd5b600160a060020a038216151561006957600080fd5b600160a060020a038116151561007e57600080fd5b60029290925560018054600160a060020a03928316600160a060020a03199182161790915560008054929093169116179055428210156100bd57600080fd5b818110156100ca57600080fd5b600491909155600555505060018054600160a060020a033016600160a060020a0319909116179055505050611e25806101046000396000f3006060604052600436106100c15763ffffffff60e060020a6000350416631515bc2b81146100cc5780632c4e722e146100f35780634042b66f146101185780634b6753bc1461012b578063521eb2731461013e578063848b9f391461016d578063b7a8807c1461028b578063cc13fd3b1461029e578063d7cd616714610345578063d8a4ccc6146103d7578063dca1e8451461046d578063dfb365e014610475578063ec8ac4d814610489578063f339118d1461049d578063fc0c546a1461058e575b6100ca336105a1565b005b34156100d757600080fd5b6100df610649565b604051901515815260200160405180910390f35b34156100fe57600080fd5b610106610652565b60405190815260200160405180910390f35b341561012357600080fd5b610106610658565b341561013657600080fd5b61010661065e565b341561014957600080fd5b610151610664565b604051600160a060020a03909116815260200160405180910390f35b6100ca60046024813581810190830135806020601f820181900481020160405190810160405281815292919060208401838380828437509496863596602080820135600160a060020a03169750919550606081019450604090810135860180830194503592508291601f83018190048102019051908101604052818152929190602084018383808284378201915050505050509190803590602001908201803590602001908080601f01602080910402602001604051908101604052818152929190602084018383808284378201915050505050509190803590602001908201803590602001908080601f01602080910402602001604051908101604052818152929190602084018383808284375094965061067395505050505050565b341561029657600080fd5b610106610a83565b34156102a957600080fd5b6102b4600435610a89565b6040518115156020820152604080825283546002600019610100600184161502019091160490820181905281906060820190859080156103355780601f1061030a57610100808354040283529160200191610335565b820191906000526020600020905b81548152906001019060200180831161031857829003601f168201915b5050935050505060405180910390f35b341561035057600080fd5b610358610ab5565b6040518080602001838152602001828103825284818151815260200191508051906020019080838360005b8381101561039b578082015183820152602001610383565b50505050905090810190601f1680156103c85780820380516001836020036101000a031916815260200191505b50935050505060405180910390f35b6100ca60048035600160a060020a03169060446024803590810190830135806020601f8201819004810201604051908101604052818152929190602084018383808284378201915050505050509190803590602001908201803590602001908080601f016020809104026020016040519081016040528181529291906020840183838082843750949650610d5895505050505050565b6100ca610fb8565b6100ca600160a060020a0360043516611534565b6100ca600160a060020a03600435166105a1565b34156104a857600080fd5b6104ee60046024813581810190830135806020601f8201819004810201604051908101604052818152929190602084018383808284375094965061156995505050505050565b60405160208101859052600160a060020a038416604082015282151560608201526080810182905260a08082528190810187818151815260200191508051906020019080838360005b8381101561054f578082015183820152602001610537565b50505050905090810190601f16801561057c5780820380516001836020036101000a031916815260200191505b50965050505050505060405180910390f35b341561059957600080fd5b6101516118f7565b3460006105ae8383611906565b6105b782611933565b6003549091506105cd908363ffffffff61195016565b6003556105da838261196a565b82600160a060020a031633600160a060020a03167f623b3804fa71d67900d064613da8f94b9617215ee90799290593e1745087ad18848460405191825260208201526040908101905180910390a3610632838361192f565b61063a611974565b610644838361192f565b505050565b60055442115b90565b60025481565b60035481565b60055481565b600154600160a060020a031681565b61067b611bbd565b610683611c1b565b61068b611974565b610695605a611976565b6101006040519081016040528089815260200188815260200187600160a060020a0316815260200186815260200185815260200184815260200160008152602001600015158152509150816006896040518082805190602001908083835b602083106107125780518252601f1990920191602091820191016106f3565b6001836020036101000a03801982511681845116808217855250505050505090500191505090815260200160405190819003902081518190805161075a929160200190611c3b565b5060208201518160010155604082015160028201805473ffffffffffffffffffffffffffffffffffffffff1916600160a060020a03929092169190911790556060820151816003019080516107b3929160200190611c3b565b506080820151816004019080516107ce929160200190611c3b565b5060a0820151816005019080516107e9929160200190611c3b565b5060c0820151816006015560e0820151600791909101805460ff19169115159190911790555060408051908101604052888152600060208201526007805491925090600181016108398382611cb9565b6000928352602090922083916002020181518190805161085d929160200190611c3b565b506020820151600191909101805460ff1916911515919091179055507f98ddacbf5e483d8e6b3cc9e584d66d5c88bca1b2297d06443c616c6d941e32279050888888888888600060405160208101879052600160a060020a038616604082015281151560c082015260e080825281906060820190608083019060a084019084018c818151815260200191508051906020019080838360005b8381101561090d5780820151838201526020016108f5565b50505050905090810190601f16801561093a5780820380516001836020036101000a031916815260200191505b50858103845289818151815260200191508051906020019080838360005b83811015610970578082015183820152602001610958565b50505050905090810190601f16801561099d5780820380516001836020036101000a031916815260200191505b50858103835288818151815260200191508051906020019080838360005b838110156109d35780820151838201526020016109bb565b50505050905090810190601f168015610a005780820380516001836020036101000a031916815260200191505b50858103825287818151815260200191508051906020019080838360005b83811015610a36578082015183820152602001610a1e565b50505050905090810190601f168015610a635780820380516001836020036101000a031916815260200191505b509b50505050505050505050505060405180910390a15050505050505050565b60045481565b6007805482908110610a9757fe5b60009182526020909120600290910201600181015490915060ff1682565b610abd611ce5565b6000610ac7611ce5565b600080808080805b600754811015610cae576007805482908110610ae757fe5b600091825260209091206001600290920201015460ff161515610c96576006600782815481101515610b1557fe5b90600052602060002090600202016000016040518082805460018160011615610100020316600290048015610b815780601f10610b5f576101008083540402835291820191610b81565b820191906000526020600020905b815481529060010190602001808311610b6d575b5050928352505060200160405180910390206006015492506000831115610c9657600854610bc890610bbc85620f424063ffffffff6119c016565b9063ffffffff6119eb16565b9450858510610c9657859350849550809150600781815481101515610be957fe5b90600052602060002090600202016000018054600181600116156101000203166002900480601f016020809104026020016040519081016040528092919081815260200182805460018160011615610100020316600290048015610c8e5780601f10610c6357610100808354040283529160200191610c8e565b820191906000526020600020905b815481529060010190602001808311610c7157829003601f168201915b505050505096505b610ca781600163ffffffff61195016565b9050610acf565b6003546006886040518082805190602001908083835b60208310610ce35780518252601f199092019160209182019101610cc4565b6001836020036101000a03801982511681845116808217855250505050505090500191505090815260200160405180910390206001015411158015610d2757508386115b15610d3757868298509850610d4d565b6000602060405190810160405260008152995097505b505050505050509091565b60006006836040518082805190602001908083835b60208310610d8c5780518252601f199092019160209182019101610d6d565b6001836020036101000a0380198251168184511680821785525050505050509050019150509081526020016040519081900390206007015460ff1615610dd157600080fd5b610dda846105a1565b610de48484611a02565b6006836040518082805190602001908083835b60208310610e165780518252601f199092019160209182019101610df7565b6001836020036101000a0380198251168184511680821785525050505050509050019150509081526020016040519081900390206002015460008054600160a060020a039283169350909116906389b3b0649084908790879086906040516020015260405160e060020a63ffffffff8716028152600160a060020a03808516602483015282166064820152608060048201908152908190604481019060840187818151815260200191508051906020019080838360005b83811015610ee5578082015183820152602001610ecd565b50505050905090810190601f168015610f125780820380516001836020036101000a031916815260200191505b50838103825285818151815260200191508051906020019080838360005b83811015610f48578082015183820152602001610f30565b50505050905090810190601f168015610f755780820380516001836020036101000a031916815260200191505b509650505050505050602060405180830381600087803b1515610f9757600080fd5b6102c65a03f11515610fa857600080fd5b5050506040518051505050505050565b610fc0611ce5565b600080610fcb610ab5565b92509250604051604051908190039020836040518082805190602001908083835b6020831061100b5780518252601f199092019160209182019101610fec565b6001836020036101000a038019825116818451161790925250505091909101925060409150505190819003902014610644576006836040518082805190602001908083835b6020831061106f5780518252601f199092019160209182019101611050565b6001836020036101000a03801982511681845116808217855250505050505090500191505090815260200160405190819003902060028101546001820154919250600160a060020a03169080156108fc0290604051600060405180830381858888f1935050505015156110e157600080fd5b60018101546003546110f89163ffffffff611b0216565b60035560068101546008546111129163ffffffff611b0216565b5060078101805460ff191660011790558060068160405180828054600181600116156101000203166002900480156111815780601f1061115f576101008083540402835291820191611181565b820191906000526020600020905b81548152906001019060200180831161116d575b5050928352505060200160405190819003902081546111b6908290849060026000196101006001841615020190911604611cf7565b5060018281015482820155600280840154818401805473ffffffffffffffffffffffffffffffffffffffff1916600160a060020a03909216919091179055600380850180546112179492860193919281161561010002600019011604611cf7565b506004820181600401908054600181600116156101000203166002900461123f929190611cf7565b5060058201816005019080546001816001161561010002031660029004611267929190611cf7565b5060068281015490820155600791820154908201805460ff191660ff90921615159190911790558054600191908490811061129e57fe5b906000526020600020906002020160010160006101000a81548160ff0219169083151502179055507f98ddacbf5e483d8e6b3cc9e584d66d5c88bca1b2297d06443c616c6d941e32278160000182600101548360020160009054906101000a9004600160a060020a0316846003018560040186600501600160405160208101879052600160a060020a038616604082015281151560c082015260e0808252885460026001821615610100908102600019019092160491830182905282916060830191608084019160a08501918501908d9080156113bc5780601f10611391576101008083540402835291602001916113bc565b820191906000526020600020905b81548152906001019060200180831161139f57829003601f168201915b505085810384528954600260001961010060018416150201909116048082526020909101908a9080156114305780601f1061140557610100808354040283529160200191611430565b820191906000526020600020905b81548152906001019060200180831161141357829003601f168201915b50508581038352885460026000196101006001841615020190911604808252602090910190899080156114a45780601f10611479576101008083540402835291602001916114a4565b820191906000526020600020905b81548152906001019060200180831161148757829003601f168201915b50508581038252875460026000196101006001841615020190911604808252602090910190889080156115185780601f106114ed57610100808354040283529160200191611518565b820191906000526020600020905b8154815290600101906020018083116114fb57829003601f168201915b50509b50505050505050505050505060405180910390a1505050565b600160a060020a0381163480156108fc0290604051600060405180830381858888f19350505050151561156657600080fd5b50565b611571611ce5565b60008060008061157f611bbd565b6006876040518082805190602001908083835b602083106115b15780518252601f199092019160209182019101611592565b6001836020036101000a03801982511681845116808217855250505050505090500191505090815260200160405180910390206101006040519081016040529081600082018054600181600116156101000203166002900480601f01602080910402602001604051908101604052809291908181526020018280546001816001161561010002031660029004801561168a5780601f1061165f5761010080835404028352916020019161168a565b820191906000526020600020905b81548152906001019060200180831161166d57829003601f168201915b50505050508152602001600182015481526020016002820160009054906101000a9004600160a060020a0316600160a060020a0316600160a060020a03168152602001600382018054600181600116156101000203166002900480601f0160208091040260200160405190810160405280929190818152602001828054600181600116156101000203166002900480156117655780601f1061173a57610100808354040283529160200191611765565b820191906000526020600020905b81548152906001019060200180831161174857829003601f168201915b50505050508152602001600482018054600181600116156101000203166002900480601f0160208091040260200160405190810160405280929190818152602001828054600181600116156101000203166002900480156118075780601f106117dc57610100808354040283529160200191611807565b820191906000526020600020905b8154815290600101906020018083116117ea57829003601f168201915b50505050508152602001600582018054600181600116156101000203166002900480601f0160208091040260200160405190810160405280929190818152602001828054600181600116156101000203166002900480156118a95780601f1061187e576101008083540402835291602001916118a9565b820191906000526020600020905b81548152906001019060200180831161188c57829003601f168201915b50505091835250506006820154602082015260079091015460ff16151560409091015290508051816020015182604001518360e001518460c00151939b929a50909850965090945092505050565b600054600160a060020a031681565b600454421015801561191a57506005544211155b151561192557600080fd5b61192f8282611b14565b5050565b600061194a600254836119c090919063ffffffff16565b92915050565b60008282018381101561195f57fe5b8091505b5092915050565b61192f8282611b35565b565b600454421015801561198a57506005544211155b151561199557600080fd5b6119ba6119ab82621a5e0063ffffffff6119c016565b6005549063ffffffff61195016565b60055550565b6000808315156119d35760009150611963565b508282028284828115156119e357fe5b041461195f57fe5b60008082848115156119f957fe5b04949350505050565b611a7d60016006836040518082805190602001908083835b60208310611a395780518252601f199092019160209182019101611a1a565b6001836020036101000a038019825116818451168082178552505050505050905001915050908152602001604051908190039020600601549063ffffffff61195016565b6006826040518082805190602001908083835b60208310611aaf5780518252601f199092019160209182019101611a90565b6001836020036101000a03801982511681845116808217855250505050505090500191505090815260200160405190819003902060060155600854611afb90600163ffffffff61195016565b6008555050565b600082821115611b0e57fe5b50900390565b600160a060020a0382161515611b2957600080fd5b80151561192f57600080fd5b60008054600160a060020a0316906340c10f1990849084906040516020015260405160e060020a63ffffffff8516028152600160a060020a0390921660048301526024820152604401602060405180830381600087803b1515611b9757600080fd5b6102c65a03f11515611ba857600080fd5b50505060405180519050151561192f57600080fd5b61010060405190810160405280611bd2611ce5565b81526000602082018190526040820152606001611bed611ce5565b8152602001611bfa611ce5565b8152602001611c07611ce5565b815260006020820181905260409091015290565b6040805190810160405280611c2e611ce5565b8152600060209091015290565b828054600181600116156101000203166002900490600052602060002090601f016020900481019282601f10611c7c57805160ff1916838001178555611ca9565b82800160010185558215611ca9579182015b82811115611ca9578251825591602001919060010190611c8e565b50611cb5929150611d6c565b5090565b815481835581811511610644576002028160020283600052602060002091820191016106449190611d86565b60206040519081016040526000815290565b828054600181600116156101000203166002900490600052602060002090601f016020900481019282601f10611d305780548555611ca9565b82800160010185558215611ca957600052602060002091601f016020900482015b82811115611ca9578254825591600101919060010190611d51565b61064f91905b80821115611cb55760008155600101611d72565b61064f91905b80821115611cb5576000611da08282611db5565b5060018101805460ff19169055600201611d8c565b50805460018160011615610100020316600290046000825580601f10611ddb5750611566565b601f0160209004906000526020600020908101906115669190611d6c5600a165627a7a7230582064c7c60964cc296f53cc3edeee34beebe5846b62b1aa39d6271c118165d6c6030029",
  "source": "pragma solidity 0.4.18;\n\nimport './xFitToken.sol';\nimport 'zeppelin-solidity/contracts/crowdsale/emission/MintedCrowdsale.sol';\nimport 'zeppelin-solidity/contracts/crowdsale/validation/TimedCrowdsale.sol';\nimport 'zeppelin-solidity/contracts/math/SafeMath.sol';\n\ncontract xFitTokenCrowdsale is TimedCrowdsale, MintedCrowdsale {\n    using SafeMath for uint256;\n\n    function xFitTokenCrowdsale\n        (\n            uint256 _openingTime,\n            uint256 _closingTime,\n            uint256 _rate,\n            address _wallet,\n            MintableToken _token\n        )\n        public\n        Crowdsale(_rate, _wallet, _token)\n        TimedCrowdsale(_openingTime, _closingTime) {\n            // rewriting wallet to this will not work in contructor\n            wallet = this;\n        }\n\n    // Details for xFit box Project proposal\n    struct Project {\n        string location;\n        uint256 cost;\n        address creator;\n        string name;\n        string lat; \n        string lng;\n        uint256 voteCount;\n        bool complete;\n    }\n\n    // event for viewing projects on front end\n    event LogProject(\n        string location,\n        uint cost, \n        address creator, \n        string name, \n        string lat, \n        string lng,\n        bool complete\n    );\n\n    // project mapping <location, ProjectStruct> \n    mapping(string => Project) private projects;\n\n    function sendTokenPayment(address tokenOwner) public payable { \n        tokenOwner.transfer(msg.value);\n    }\n\n\n    function getProjectInfo(string _location) public view returns( \n        string, uint256,address,bool,uint256\n\n    ) {\n        Project memory project = projects[_location];\n        return (\n            project.location,\n            project.cost,\n            project.creator,\n            project.complete,\n            project.voteCount\n        );\n    }\n\n    // All Project addresses\n    struct ProjectAddress {\n        string location;\n        bool deployed;\n    }\n\n    // Array for storing all Project addresses\n    ProjectAddress[] public projectAddresses;\n\n    // Struct which will store purchased tokens\n    struct PurchasedToken {\n        string tokenName;\n        string projectVotedFor;\n    }\n\n    // Keeps a running total of votes cast\n    uint256 totalVoteCount;\n\n  /**\n   * @dev Create and save a new xFit project proposal\n   * @param _location Street address of new xFit box\n   * @param _cost Cost of new xFit project\n   * @param _creator Address of the project proposal creator\n   */\n   // TODO add minumum contribution amount for a project proposal\n    function createProject(string _location, uint _cost, address _creator, string _name, string _lat, string _lng) public payable {\n        // Send project creation fee to Genus wallet\n        // need to update this to wallet, not contract\n        _forwardFunds();\n\n        // Increase crowdsale duation by 90 days\n        _extendClosingTime(90);\n\n        // Create project information\n        Project memory newProject = Project({\n            location: _location,\n            cost: _cost,\n            creator: _creator,\n            name: _name,\n            lat: _lat,\n            lng: _lng,\n            complete: false,\n            voteCount: 0\n        });\n\n        // Save project information\n        projects[_location] = newProject;\n\n        // Create project information\n        ProjectAddress memory newProjectAddress = ProjectAddress({\n            location: _location,\n            deployed: false\n        });\n        \n        // save ProjectAddress information\n        projectAddresses.push(newProjectAddress);\n\n        // log the creation of the new project\n        LogProject(_location, _cost, _creator, _name, _lat, _lng, false);\n    }\n\n\n  /**\n   * @dev Buy a project specific xFitToken\n   * @param _beneficiary Address performing the token purchase\n   * @param _location xFit project bought into\n   * @param _tokenName name of token\n   */\n    function buyxFitToken(address _beneficiary, string _location, string _tokenName) public payable {\n        // Can we change this to msg.sender so that there is not option to buy on behalf of someone else;\n        \n        // before buyToken, verify that the project is still undeployed\n        require(!projects[_location].complete);\n        buyTokens(_beneficiary);\n        updateVoteCount(_beneficiary, _location);\n        address projectVotedForOwner = projects[_location].creator;\n        xFitToken(token).assignPin(_tokenName, _beneficiary, _location, projectVotedForOwner);\n    }\n        \n    function updateVoteCount(address _beneficiary, string _location) internal {\n        // update project voteTotals\n        projects[_location].voteCount = projects[_location].voteCount.add(1);\n        // update total vote count\n        totalVoteCount = totalVoteCount.add(1);\n    }\n\n\n /**\n   * @dev Checks if any project can deploy\n   */\n    function canDeployProject() public view returns (string, uint256){\n        string memory leadingProject;\n        uint256 leadingPercentage;\n        uint256 votePercentage;\n        uint256 secondLeadingPercentage;\n        uint256 projectVoteCount;\n        uint256 leadingProjectIndex;\n        for(uint256 i = 0; i < projectAddresses.length; i = i.add(1)){\n            if (!projectAddresses[i].deployed){\n                projectVoteCount = projects[projectAddresses[i].location].voteCount;\n                if (projectVoteCount > 0){                \n                    votePercentage = (projectVoteCount.mul(1000000)).div(totalVoteCount);\n                    if (votePercentage >= leadingPercentage){\n                        secondLeadingPercentage = leadingPercentage;\n                        leadingPercentage = votePercentage;\n                        leadingProjectIndex = i;\n                        leadingProject = projectAddresses[i].location;\n                    }\n                }\n            }\n\n        }\n        if(projects[leadingProject].cost <= weiRaised && leadingPercentage > secondLeadingPercentage){\n            return (leadingProject, leadingProjectIndex);\n        } else {\n            return (\"\",0);\n        }\n    }\n\n  /**\n   * @dev Checks if a project can deploy, then deploys\n   */\n    function deployProject() public payable{\n        var(projectToDeploy, projectIndex) = canDeployProject();\n        if(keccak256(projectToDeploy) != keccak256(\"\")){\n            // transfer money from wallet address to projectToDeploy address\n            Project winningProject = projects[projectToDeploy];\n            winningProject.creator.transfer(winningProject.cost);\n            \n            // subtract weiRaised by winningProject.cost\n            weiRaised = weiRaised.sub(winningProject.cost);\n\n            // subtract votes from winning project from vote total\n            totalVoteCount.sub(winningProject.voteCount);\n\n            // set project deployment status to true\n            winningProject.complete = true;\n            projects[winningProject.location] = winningProject;\n            projectAddresses[projectIndex].deployed = true;\n\n            // log the deployment of the new project\n            LogProject(winningProject.location, winningProject.cost, winningProject.creator, winningProject.name, winningProject.lat, winningProject.lng, true);\n        }\n    }\n\n  /**\n   * @dev Extends the period in which the crowdsale is open\n   * @param _days number of days to increased the closing time\n   */\n    function _extendClosingTime(uint256 _days) internal onlyWhileOpen {\n        closingTime = closingTime.add(_days.mul(1728000));\n    }\n\n  /**\n   * @dev Overrides Crowdsale fund forwarding, sending funds to crowdsale contract instead of wallet.\n   */\n    function _forwardFunds() internal {}\n}\n",
  "sourcePath": "/Users/Colin/Desktop/crossfit-coin-backend-demo/contracts/xFitTokenCrowdsale.sol",
  "compiler": {
    "name": "solc",
    "version": "0.4.18+commit.9cf6e910.Emscripten.clang"
  },
  "schemaVersion": "1.0.1",
  "updatedAt": "2018-06-14T18:43:54.448Z"
}